S00E00003320776972652E737265630C
S11300000C942A000C943F000C943F000C943F0085
S11300100C943F000C943F000C943F000C943F0060
S11300200C943F000C943F000C943F000C943F0050
S11300300C943F000C943F000C943F000C943F0040
S11300400C943F000C943F000C943F000C943F0030
S11300500C943F0011241FBECFE5D8E0DEBFCDBF16
S113006010E0A0E6B0E0E8E2FAE002C005900D92EC
S1130070A63FB107D9F70E942E010C9412050C94E7
S1130080000085B3806485BB00C085B38F7B85BBCE
S11300900895CF93DF93D82F662321F085B3806131
S11300A085BB03C085B38F7E85BB85B38F7D85BB40
S11300B084B38F6084BBC5B3C07F8D2F82958F704E
S11300C08C2B85BB0E944100DF70DC2BD5BB0E94CA
S11300D04100CF60C5BBDF91CF910895882321F003
S11300E085B3806185BB03C085B38F7E85BB85B333
S11300F0806285BB84B3807F84BB85B3806485BB09
S113010000C093B39295907F85B38F7B85BB00C06D
S113011085B3806485BB00C083B38F7025B32F7B08
S113012025BB892B089580E00E946E008823DCF3B0
S113013088E090E00197F1F780E00E946E00089556
S1130140CF93C82F0E94930060E08C2F0E94490037
S1130150CF910895611104C080580E94A0000895B1
S113016080540E94A000089581E00E94A000089598
S113017082E00E94A0000895CF93C82F0E949300AC
S1130180CA3049F4803410F480E401C080E080581F
S11301900E94A00004C061E08C2F0E944900CF910E
S11301A00895CF93DF93FC0103C00E94BC00FE01BD
S11301B0EF01219680818111F8CFDF91CF910895CD
S11301C01F93CF93DF93182F84B38F6784BB80E092
S11301D09AEF0197F1F785B3826085BB85B381609F
S11301E085BB0E94410080E09EE40197F1F70E94E4
S11301F04100C0E0D1E0CE010197F1F70E94410037
S1130200CE010197F1F785B38E7F85BB0E94410033
S11302102197F1F788E20E94A00088E00E94A000E4
S11302200E94B40086E00E94A000812F0E94A000DA
S1130230DF91CF911F91089580E487B986E886B94C
S11302400895877097B1987F892B87B986B18064A8
S113025086B93699FECF84B195B10895CF93DF93D3
S1130260CDB7DEB72A970FB6F894DEBF0FBECDBF69
S113027017BA82E988BB8FEF81BB0E941C018EE014
S11302800E94E0000E94B40060E080E00E94AA00A6
S113029080E690E00E94D10061E080E00E94AA0024
S11302A084E790E00E94D10087EA91E60197F1F794
S11302B000C0000083E790E00E94D10087EA91E645
S11302C00197F1F700C0000082E790E00E94D1009E
S11302D087EA91E60197F1F700C0000081E790E01A
S11302E00E94D10087EA91E60197F1F700C000006F
S11302F080E790E00E94D10087EA91E60197F1F748
S113030000C000000E94B40060E080E00E94AA00E7
S113031086E790E00E94D10061E080E00E94AA009C
S113032085E890E00E94D1009FE52AEE80E091509C
S113033020408040E1F700C00000B79916C080E07B
S113034090E00E94F904082F10E084E090E00E94FD
S1130350F904E82EF12C9FE52AEE80E0915020402C
S11303608040E1F700C00000B4C0B499CBCF6EE187
S113037080E090E00E94010580E090E00E94F90492
S1130380082F10E06FE084E090E00E94010584E013
S113039090E00E94F904E82EF12C0E94B40060E081
S11303A080E00E94AA0085E990E00E94D1004AE022
S11303B050E0BE016F5F7F4FC8010E94B904CE01B7
S11303C001960E94D10060E08CE00E94AA0080EABD
S11303D090E00E94D10061E080E00E94AA0083EADC
S11303E090E00E94D1009FE52AEE80E091502040E9
S11303F08040E1F700C000000BC09FE52AEE80E0DA
S1130400915020408040E1F700C000000F5F1F4F73
S1130410B49BF3CF0BC09FE52AEE80E091502040BF
S11304208040E1F700C0000001501109B79BF3CFF1
S1130430FFC00E94B4000E94B80060E080E00E9407
S1130440AA0082EB90E00E94D1004AE050E0BE0195
S11304506F5F7F4FC7010E94B904CE0101960E94CD
S1130460D10060E08BE00E94AA0080EA90E00E9444
S1130470D10061E080E00E94AA0083EA90E00E943B
S1130480D1009FE52AEE80E0915020408040E1F7C2
S113049000C000000CC09FE52AEE80E0915020408F
S11304A08040E1F700C000009FEFE91AF90AB49B0D
S11304B0F2CF0CC02FE58AEE90E0215080409040AE
S11304C0E1F700C0000021E0E21AF108B79BF2CF87
S11304D0ACC080E00E9421016C0186E00E942101F1
S11304E0880F991FC81AD90A83E0C81A81E0D80A6C
S11304F0B6010D2C000C880B990B0E94C00326E654
S113050036E646EE5FE30E944C0420E030E040E033
S113051052E40E941C030E9488034B015C0160E0CA
S113052080E00E94AA004AE050E0BE016F5F7F4F66
S1130530C6010E94B9048CEB90E00E94D100CE0168
S113054001960E94D10060E087E00E94AA0080EA40
S113055090E00E94D10060E08BE00E94AA004AE093
S113056050E0BE016F5F7F4FC4010E94B904CE0109
S113057001960E94D10060E08EE00E94AA0082EC05
S113058090E00E94D1009FE52AEE80E09150204047
S11305908040E1F700C00000C016D1067CF00E9444
S11305A0B4000E94B80061E080E00E94AA0085ECDB
S11305B090E00E94D10081E082BB20C0EC14FD04D5
S11305C07CF00E94B4000E94B80061E080E00E94C8
S11305D0AA0087ED90E00E94D10080E882BB0EC0A3
S11305E00E94B4000E94B80061E080E00E94AA006A
S11305F088EE90E00E94D10012BA12BAB1990AC0F2
S11306009FE52AEE80E0915020408040E1F700C051
S11306100000C3CE602F80E090E00E9401056E2DA3
S113062084E090E00E94010554CFB19902CF51CFEC
S1130630B199B3CEFECE5058BB27AA270E943303EC
S11306400C9412040E94040438F00E940B0420F05D
S113065039F49F3F19F426F40C9401040EF4E09548
S1130660E7FB0C94FB03E92F0E94230458F3BA1709
S1130670620773078407950720F079F4A6F50C94B4
S113068045040EF4E0950B2EBA2FA02D0B01B901F1
S113069090010C01CA01A0011124FF27591B99F0F4
S11306A0593F50F4503E68F11A16F040A22F232F00
S11306B0342F4427585FF3CF469537952795A79550
S11306C0F0405395C9F77EF41F16BA0B620B730BF7
S11306D0840BBAF09150A1F0FF0FBB1F661F771F68
S11306E0881FC2F70EC0BA0F621F731F841F48F41D
S11306F0879577956795B795F7959E3F08F0B0CFA6
S11307009395880F08F09927EE0F9795879508958C
S11307100E948F036894B1110C94460408950E94BA
S11307202B0488F09F5798F0B92F9927B751B0F050
S1130730E1F0660F771F881F991F1AF0BA95C9F761
S113074014C0B13091F00E944504B1E008950C94B6
S11307504504672F782F8827B85F39F0B93FCCF369
S1130760869577956795B395D9F73EF490958095DE
S1130770709561957F4F8F4F9F4F0895E89409C0FE
S113078097FB3EF490958095709561957F4F8F4FC0
S11307909F4F9923A9F0F92F96E9BB279395F695D6
S11307A0879577956795B795F111F8CFFAF4BB0F54
S11307B011F460FF1BC06F5F7F4F8F4F9F4F16C0B8
S11307C0882311F096E911C0772321F09EE8872F42
S11307D0762F05C0662371F096E8862F70E060E0FE
S11307E02AF09A95660F771F881FDAF7880F969577
S11307F0879597F9089597F99F6780E870E060E01E
S113080008959FEF80EC089500240A9416161706A5
S113081018060906089500240A94121613061406ED
S113082005060895092E0394000C11F4882352F050
S1130830BB0F40F4BF2B11F460FF04C06F5F7F4F08
S11308408F4F9F4F089557FD9058440F551F59F0EF
S11308505F3F71F04795880F97FB991F61F09F3FA9
S113086079F087950895121613061406551FF2CFD2
S11308704695F1DF08C0161617061806991FF1CF22
S113088086957105610508940895E894BB27662749
S11308907727CB0197F908950E945F040C94120402
S11308A00E94040438F00E940B0420F0952311F0F8
S11308B00C94FB030C94010411240C9446040E9430
S11308C0230470F3959FC1F3950F50E0551F629F69
S11308D0F001729FBB27F00DB11D639FAA27F00D95
S11308E0B11DAA1F649F6627B00DA11D661F829FBC
S11308F02227B00DA11D621F739FB00DA11D621FA1
S1130900839FA00D611D221F749F3327A00D611DBD
S1130910231F849F600D211D822F762F6A2F11249F
S11309209F5750409AF0F1F088234AF0EE0FFF1FD2
S1130930BB1F661F771F881F91505040A9F79E3F29
S1130940510580F00C94FB030C9446045F3FE4F3E0
S1130950983ED4F3869577956795B795F795E7957F
S11309609F5FC1F7FE2B880F911D9695879597F988
S113097008954532510520F4423010F00C94C4041B
S1130980FB011082CB010895BB274A3031F499232F
S113099022F4BDE2909581959F4F0C94D004BB271F
S11309A0FB015527AA27880F991FAA1FA41710F027
S11309B0A41B83955051B9F7A05DAA3308F0A95D33
S11309C0A193009779F7B111B1931192CB010C94D3
S11309D0E904DC01FC01672F71917723E1F7329779
S11309E004C07C916D9370836291AE17BF07C8F306
S11309F00895E199FECF9FBB8EBBE09A99278DB3F2
S1130A000895262FE199FECF9FBB8EBBE09A0197F4
S1130A100DB2021631F02DBB0FB6F894E29AE19AAA
S10B0A200FBE0895F894FFCF06
S1130A285374617274696E672053797374656D00C9
S1130A382E2E2E2E2E0053797374656D20537461F7
S1130A487274656400496E697469616C3F52656CBF
S1130A586F61643F00486967682074656D703D0084
S1130A682743005365743F20496E633F2044656300
S1130A783F004C6F772074656D703D0054656D7050
S1130A883D00274600486967682054656D703A46FA
S1130A98414E204F4E20004C6F772054656D703ABC
S1130AA848454154204F4E004F7074696D616C2065
S1090AB854656D7000009E
S9030000FC
